{
  "contractName": "Marketplace",
  "abi": [
    {
      "constant": true,
      "inputs": [
        {
          "name": "",
          "type": "uint256"
        }
      ],
      "name": "students",
      "outputs": [
        {
          "name": "id",
          "type": "uint256"
        },
        {
          "name": "name",
          "type": "string"
        },
        {
          "name": "dateOfBirth",
          "type": "string"
        },
        {
          "name": "gender",
          "type": "string"
        },
        {
          "name": "residence",
          "type": "string"
        },
        {
          "name": "phoneNumber",
          "type": "string"
        }
      ],
      "payable": false,
      "stateMutability": "view",
      "type": "function",
      "signature": "0x06ead22e"
    },
    {
      "constant": true,
      "inputs": [
        {
          "name": "",
          "type": "uint256"
        }
      ],
      "name": "allEnrollments",
      "outputs": [
        {
          "name": "id",
          "type": "uint256"
        },
        {
          "name": "student_id",
          "type": "uint256"
        },
        {
          "name": "course_id",
          "type": "uint256"
        },
        {
          "name": "grade_mid",
          "type": "string"
        },
        {
          "name": "grade_fi",
          "type": "string"
        }
      ],
      "payable": false,
      "stateMutability": "view",
      "type": "function",
      "signature": "0x5ef05145"
    },
    {
      "constant": true,
      "inputs": [],
      "name": "courseCount",
      "outputs": [
        {
          "name": "",
          "type": "uint256"
        }
      ],
      "payable": false,
      "stateMutability": "view",
      "type": "function",
      "signature": "0x66055159"
    },
    {
      "constant": true,
      "inputs": [
        {
          "name": "",
          "type": "uint256"
        }
      ],
      "name": "instructors",
      "outputs": [
        {
          "name": "id",
          "type": "uint256"
        },
        {
          "name": "name",
          "type": "string"
        },
        {
          "name": "degree",
          "type": "uint256"
        },
        {
          "name": "email",
          "type": "string"
        },
        {
          "name": "phone",
          "type": "string"
        }
      ],
      "payable": false,
      "stateMutability": "view",
      "type": "function",
      "signature": "0x8d532554"
    },
    {
      "constant": true,
      "inputs": [],
      "name": "instructorCount",
      "outputs": [
        {
          "name": "",
          "type": "uint256"
        }
      ],
      "payable": false,
      "stateMutability": "view",
      "type": "function",
      "signature": "0x8dae48f9"
    },
    {
      "constant": true,
      "inputs": [
        {
          "name": "",
          "type": "uint256"
        }
      ],
      "name": "courses",
      "outputs": [
        {
          "name": "id",
          "type": "uint256"
        },
        {
          "name": "courseName",
          "type": "string"
        },
        {
          "name": "credits",
          "type": "uint256"
        },
        {
          "name": "instructor",
          "type": "uint256"
        },
        {
          "name": "option",
          "type": "uint256"
        }
      ],
      "payable": false,
      "stateMutability": "view",
      "type": "function",
      "signature": "0x96f979d2"
    },
    {
      "constant": true,
      "inputs": [
        {
          "name": "",
          "type": "uint256"
        }
      ],
      "name": "enrollments",
      "outputs": [
        {
          "name": "id",
          "type": "uint256"
        },
        {
          "name": "student_id",
          "type": "uint256"
        },
        {
          "name": "course_id",
          "type": "uint256"
        },
        {
          "name": "grade_mid",
          "type": "string"
        },
        {
          "name": "grade_fi",
          "type": "string"
        }
      ],
      "payable": false,
      "stateMutability": "view",
      "type": "function",
      "signature": "0x9a6b2087"
    },
    {
      "constant": true,
      "inputs": [],
      "name": "nextEnrollmentId",
      "outputs": [
        {
          "name": "",
          "type": "uint256"
        }
      ],
      "payable": false,
      "stateMutability": "view",
      "type": "function",
      "signature": "0x9f3cd570"
    },
    {
      "constant": true,
      "inputs": [],
      "name": "logCount",
      "outputs": [
        {
          "name": "",
          "type": "uint256"
        }
      ],
      "payable": false,
      "stateMutability": "view",
      "type": "function",
      "signature": "0xa503898f"
    },
    {
      "constant": true,
      "inputs": [],
      "name": "enrollmentCount",
      "outputs": [
        {
          "name": "",
          "type": "uint256"
        }
      ],
      "payable": false,
      "stateMutability": "view",
      "type": "function",
      "signature": "0xbd2ac121"
    },
    {
      "constant": true,
      "inputs": [
        {
          "name": "",
          "type": "uint256"
        }
      ],
      "name": "updatedEnrollments",
      "outputs": [
        {
          "name": "",
          "type": "bool"
        }
      ],
      "payable": false,
      "stateMutability": "view",
      "type": "function",
      "signature": "0xc79697c5"
    },
    {
      "constant": true,
      "inputs": [
        {
          "name": "",
          "type": "uint256"
        }
      ],
      "name": "allCourses",
      "outputs": [
        {
          "name": "id",
          "type": "uint256"
        },
        {
          "name": "courseName",
          "type": "string"
        },
        {
          "name": "credits",
          "type": "uint256"
        },
        {
          "name": "instructor",
          "type": "uint256"
        },
        {
          "name": "option",
          "type": "uint256"
        }
      ],
      "payable": false,
      "stateMutability": "view",
      "type": "function",
      "signature": "0xcb88dc79"
    },
    {
      "constant": true,
      "inputs": [
        {
          "name": "",
          "type": "uint256"
        }
      ],
      "name": "allInstructors",
      "outputs": [
        {
          "name": "id",
          "type": "uint256"
        },
        {
          "name": "name",
          "type": "string"
        },
        {
          "name": "degree",
          "type": "uint256"
        },
        {
          "name": "email",
          "type": "string"
        },
        {
          "name": "phone",
          "type": "string"
        }
      ],
      "payable": false,
      "stateMutability": "view",
      "type": "function",
      "signature": "0xd41a0112"
    },
    {
      "constant": true,
      "inputs": [],
      "name": "nextInstructorId",
      "outputs": [
        {
          "name": "",
          "type": "uint256"
        }
      ],
      "payable": false,
      "stateMutability": "view",
      "type": "function",
      "signature": "0xd94a9fbb"
    },
    {
      "constant": true,
      "inputs": [],
      "name": "studentCount",
      "outputs": [
        {
          "name": "",
          "type": "uint256"
        }
      ],
      "payable": false,
      "stateMutability": "view",
      "type": "function",
      "signature": "0xe581f9ee"
    },
    {
      "constant": true,
      "inputs": [
        {
          "name": "",
          "type": "uint256"
        }
      ],
      "name": "allStudents",
      "outputs": [
        {
          "name": "id",
          "type": "uint256"
        },
        {
          "name": "name",
          "type": "string"
        },
        {
          "name": "dateOfBirth",
          "type": "string"
        },
        {
          "name": "gender",
          "type": "string"
        },
        {
          "name": "residence",
          "type": "string"
        },
        {
          "name": "phoneNumber",
          "type": "string"
        }
      ],
      "payable": false,
      "stateMutability": "view",
      "type": "function",
      "signature": "0xe6a852cc"
    },
    {
      "constant": true,
      "inputs": [
        {
          "name": "",
          "type": "uint256"
        }
      ],
      "name": "logs",
      "outputs": [
        {
          "name": "id",
          "type": "uint256"
        },
        {
          "name": "timestamp",
          "type": "uint256"
        },
        {
          "name": "content",
          "type": "string"
        },
        {
          "name": "studentId",
          "type": "uint256"
        },
        {
          "name": "courseId",
          "type": "uint256"
        }
      ],
      "payable": false,
      "stateMutability": "view",
      "type": "function",
      "signature": "0xe79899bd"
    },
    {
      "anonymous": false,
      "inputs": [
        {
          "indexed": true,
          "name": "enrollmentId",
          "type": "uint256"
        },
        {
          "indexed": false,
          "name": "newGradeMid",
          "type": "string"
        },
        {
          "indexed": false,
          "name": "newGradeFinal",
          "type": "string"
        }
      ],
      "name": "EnrollmentUpdated",
      "type": "event",
      "signature": "0xa6679f3690087b3b1466a6de8c55d83e84594efb681afd637793baa5a7b56b87"
    },
    {
      "anonymous": false,
      "inputs": [
        {
          "indexed": true,
          "name": "id",
          "type": "uint256"
        },
        {
          "indexed": true,
          "name": "timestamp",
          "type": "uint256"
        },
        {
          "indexed": false,
          "name": "content",
          "type": "string"
        },
        {
          "indexed": false,
          "name": "studentId",
          "type": "uint256"
        },
        {
          "indexed": false,
          "name": "courseId",
          "type": "uint256"
        }
      ],
      "name": "LogAdded",
      "type": "event",
      "signature": "0x61ed8260aed342b0c08c82f4f1241e9bc40d88e5d07403a1aa93ea68d2448743"
    },
    {
      "constant": false,
      "inputs": [
        {
          "name": "_id",
          "type": "uint256"
        },
        {
          "name": "_name",
          "type": "string"
        },
        {
          "name": "_dateOfBirth",
          "type": "string"
        },
        {
          "name": "_gender",
          "type": "string"
        },
        {
          "name": "_residence",
          "type": "string"
        },
        {
          "name": "_phoneNumber",
          "type": "string"
        }
      ],
      "name": "addStudent",
      "outputs": [],
      "payable": false,
      "stateMutability": "nonpayable",
      "type": "function",
      "signature": "0x2ccf5542"
    },
    {
      "constant": false,
      "inputs": [
        {
          "name": "_id",
          "type": "uint256"
        },
        {
          "name": "_courseName",
          "type": "string"
        },
        {
          "name": "_credits",
          "type": "uint256"
        },
        {
          "name": "_instructor",
          "type": "uint256"
        },
        {
          "name": "_option",
          "type": "uint256"
        }
      ],
      "name": "addCourse",
      "outputs": [],
      "payable": false,
      "stateMutability": "nonpayable",
      "type": "function",
      "signature": "0xa6570e73"
    },
    {
      "constant": false,
      "inputs": [
        {
          "name": "_student_id",
          "type": "uint256"
        },
        {
          "name": "_course_id",
          "type": "uint256"
        },
        {
          "name": "_grade_mid",
          "type": "string"
        },
        {
          "name": "_grade_final",
          "type": "string"
        }
      ],
      "name": "addEnrollment",
      "outputs": [],
      "payable": false,
      "stateMutability": "nonpayable",
      "type": "function",
      "signature": "0x69cc0e93"
    },
    {
      "constant": false,
      "inputs": [
        {
          "name": "_id",
          "type": "uint256"
        },
        {
          "name": "_name",
          "type": "string"
        },
        {
          "name": "_degree",
          "type": "uint256"
        },
        {
          "name": "_email",
          "type": "string"
        },
        {
          "name": "_phone",
          "type": "string"
        }
      ],
      "name": "addInstructor",
      "outputs": [],
      "payable": false,
      "stateMutability": "nonpayable",
      "type": "function",
      "signature": "0x616241f1"
    },
    {
      "constant": true,
      "inputs": [],
      "name": "getallStudents",
      "outputs": [
        {
          "components": [
            {
              "name": "id",
              "type": "uint256"
            },
            {
              "name": "name",
              "type": "string"
            },
            {
              "name": "dateOfBirth",
              "type": "string"
            },
            {
              "name": "gender",
              "type": "string"
            },
            {
              "name": "residence",
              "type": "string"
            },
            {
              "name": "phoneNumber",
              "type": "string"
            }
          ],
          "name": "",
          "type": "tuple[]"
        }
      ],
      "payable": false,
      "stateMutability": "view",
      "type": "function",
      "signature": "0xf515fd05"
    },
    {
      "constant": true,
      "inputs": [
        {
          "name": "_id",
          "type": "uint256"
        }
      ],
      "name": "studentExists",
      "outputs": [
        {
          "name": "",
          "type": "bool"
        }
      ],
      "payable": false,
      "stateMutability": "view",
      "type": "function",
      "signature": "0xfd38fb15"
    },
    {
      "constant": true,
      "inputs": [
        {
          "name": "_id",
          "type": "uint256"
        }
      ],
      "name": "instructorExists",
      "outputs": [
        {
          "name": "",
          "type": "bool"
        }
      ],
      "payable": false,
      "stateMutability": "view",
      "type": "function",
      "signature": "0xb1df93ec"
    },
    {
      "constant": true,
      "inputs": [
        {
          "name": "_id",
          "type": "uint256"
        }
      ],
      "name": "courseExists",
      "outputs": [
        {
          "name": "",
          "type": "bool"
        }
      ],
      "payable": false,
      "stateMutability": "view",
      "type": "function",
      "signature": "0x5407b304"
    },
    {
      "constant": true,
      "inputs": [
        {
          "name": "_studentId",
          "type": "uint256"
        },
        {
          "name": "_courseId",
          "type": "uint256"
        }
      ],
      "name": "enrollmentExists",
      "outputs": [
        {
          "name": "",
          "type": "bool"
        }
      ],
      "payable": false,
      "stateMutability": "view",
      "type": "function",
      "signature": "0x2601c64a"
    },
    {
      "constant": true,
      "inputs": [],
      "name": "getallCourses",
      "outputs": [
        {
          "components": [
            {
              "name": "id",
              "type": "uint256"
            },
            {
              "name": "courseName",
              "type": "string"
            },
            {
              "name": "credits",
              "type": "uint256"
            },
            {
              "name": "instructor",
              "type": "uint256"
            },
            {
              "name": "option",
              "type": "uint256"
            }
          ],
          "name": "",
          "type": "tuple[]"
        }
      ],
      "payable": false,
      "stateMutability": "view",
      "type": "function",
      "signature": "0x3050d0a5"
    },
    {
      "constant": true,
      "inputs": [],
      "name": "getallEnrollments",
      "outputs": [
        {
          "components": [
            {
              "name": "id",
              "type": "uint256"
            },
            {
              "name": "student_id",
              "type": "uint256"
            },
            {
              "name": "course_id",
              "type": "uint256"
            },
            {
              "name": "grade_mid",
              "type": "string"
            },
            {
              "name": "grade_fi",
              "type": "string"
            }
          ],
          "name": "",
          "type": "tuple[]"
        }
      ],
      "payable": false,
      "stateMutability": "view",
      "type": "function",
      "signature": "0x7f5b8f57"
    },
    {
      "constant": true,
      "inputs": [],
      "name": "getAllInstructors",
      "outputs": [
        {
          "components": [
            {
              "name": "id",
              "type": "uint256"
            },
            {
              "name": "name",
              "type": "string"
            },
            {
              "name": "degree",
              "type": "uint256"
            },
            {
              "name": "email",
              "type": "string"
            },
            {
              "name": "phone",
              "type": "string"
            }
          ],
          "name": "",
          "type": "tuple[]"
        }
      ],
      "payable": false,
      "stateMutability": "view",
      "type": "function",
      "signature": "0x156e0b5e"
    },
    {
      "constant": true,
      "inputs": [
        {
          "name": "_studentId",
          "type": "uint256"
        }
      ],
      "name": "getEnrollmentsByStudentId",
      "outputs": [
        {
          "components": [
            {
              "name": "id",
              "type": "uint256"
            },
            {
              "name": "student_id",
              "type": "uint256"
            },
            {
              "name": "course_id",
              "type": "uint256"
            },
            {
              "name": "grade_mid",
              "type": "string"
            },
            {
              "name": "grade_fi",
              "type": "string"
            }
          ],
          "name": "",
          "type": "tuple[]"
        }
      ],
      "payable": false,
      "stateMutability": "view",
      "type": "function",
      "signature": "0x21a59b86"
    },
    {
      "constant": true,
      "inputs": [
        {
          "name": "_studentId",
          "type": "uint256"
        }
      ],
      "name": "getStudentById",
      "outputs": [
        {
          "name": "",
          "type": "uint256"
        },
        {
          "name": "",
          "type": "string"
        },
        {
          "name": "",
          "type": "string"
        },
        {
          "name": "",
          "type": "string"
        },
        {
          "name": "",
          "type": "string"
        },
        {
          "name": "",
          "type": "string"
        }
      ],
      "payable": false,
      "stateMutability": "view",
      "type": "function",
      "signature": "0xc8fb0793"
    },
    {
      "constant": true,
      "inputs": [
        {
          "name": "_courseId",
          "type": "uint256"
        }
      ],
      "name": "getCourseById",
      "outputs": [
        {
          "name": "",
          "type": "uint256"
        },
        {
          "name": "",
          "type": "string"
        },
        {
          "name": "",
          "type": "uint256"
        },
        {
          "name": "",
          "type": "uint256"
        },
        {
          "name": "",
          "type": "uint256"
        }
      ],
      "payable": false,
      "stateMutability": "view",
      "type": "function",
      "signature": "0xea5b210f"
    },
    {
      "constant": true,
      "inputs": [
        {
          "name": "_instructorId",
          "type": "uint256"
        }
      ],
      "name": "getInstructorById",
      "outputs": [
        {
          "name": "",
          "type": "uint256"
        },
        {
          "name": "",
          "type": "string"
        },
        {
          "name": "",
          "type": "uint256"
        },
        {
          "name": "",
          "type": "string"
        },
        {
          "name": "",
          "type": "string"
        }
      ],
      "payable": false,
      "stateMutability": "view",
      "type": "function",
      "signature": "0x93a92905"
    },
    {
      "constant": false,
      "inputs": [
        {
          "name": "_enrollmentId",
          "type": "uint256"
        },
        {
          "name": "_gradeMid",
          "type": "string"
        },
        {
          "name": "_gradeFinal",
          "type": "string"
        },
        {
          "name": "_courseId",
          "type": "uint256"
        }
      ],
      "name": "updateEnrollment",
      "outputs": [],
      "payable": false,
      "stateMutability": "nonpayable",
      "type": "function",
      "signature": "0xd141eab5"
    },
    {
      "constant": false,
      "inputs": [
        {
          "name": "_enrollmentId",
          "type": "uint256"
        },
        {
          "name": "_gradeMid",
          "type": "string"
        },
        {
          "name": "_gradeFinal",
          "type": "string"
        },
        {
          "name": "_courseId",
          "type": "uint256"
        }
      ],
      "name": "addGrade",
      "outputs": [],
      "payable": false,
      "stateMutability": "nonpayable",
      "type": "function",
      "signature": "0x16e44d84"
    },
    {
      "constant": false,
      "inputs": [
        {
          "name": "_content",
          "type": "string"
        },
        {
          "name": "_studentId",
          "type": "uint256"
        },
        {
          "name": "_courseId",
          "type": "uint256"
        }
      ],
      "name": "_addLog",
      "outputs": [],
      "payable": false,
      "stateMutability": "nonpayable",
      "type": "function",
      "signature": "0x42444471"
    },
    {
      "constant": true,
      "inputs": [],
      "name": "getLogsCount",
      "outputs": [
        {
          "name": "",
          "type": "uint256"
        }
      ],
      "payable": false,
      "stateMutability": "view",
      "type": "function",
      "signature": "0xcc9e300f"
    },
    {
      "constant": true,
      "inputs": [
        {
          "name": "_index",
          "type": "uint256"
        }
      ],
      "name": "getLog",
      "outputs": [
        {
          "name": "id",
          "type": "uint256"
        },
        {
          "name": "timestamp",
          "type": "uint256"
        },
        {
          "name": "content",
          "type": "string"
        },
        {
          "name": "studentId",
          "type": "uint256"
        },
        {
          "name": "courseId",
          "type": "uint256"
        }
      ],
      "payable": false,
      "stateMutability": "view",
      "type": "function",
      "signature": "0x3206b2c6"
    },
    {
      "constant": false,
      "inputs": [
        {
          "name": "_id",
          "type": "uint256"
        },
        {
          "name": "_name",
          "type": "string"
        },
        {
          "name": "_dateOfBirth",
          "type": "string"
        },
        {
          "name": "_gender",
          "type": "string"
        },
        {
          "name": "_residence",
          "type": "string"
        },
        {
          "name": "_phoneNumber",
          "type": "string"
        }
      ],
      "name": "updateStudent",
      "outputs": [],
      "payable": false,
      "stateMutability": "nonpayable",
      "type": "function",
      "signature": "0x728e2274"
    },
    {
      "constant": false,
      "inputs": [
        {
          "name": "_id",
          "type": "uint256"
        },
        {
          "name": "_courseName",
          "type": "string"
        },
        {
          "name": "_credits",
          "type": "uint256"
        },
        {
          "name": "_instructor",
          "type": "uint256"
        },
        {
          "name": "_option",
          "type": "uint256"
        }
      ],
      "name": "updateCourse",
      "outputs": [],
      "payable": false,
      "stateMutability": "nonpayable",
      "type": "function",
      "signature": "0x1464e656"
    },
    {
      "constant": false,
      "inputs": [
        {
          "name": "_id",
          "type": "uint256"
        },
        {
          "name": "_name",
          "type": "string"
        },
        {
          "name": "_degree",
          "type": "uint256"
        },
        {
          "name": "_email",
          "type": "string"
        },
        {
          "name": "_phone",
          "type": "string"
        }
      ],
      "name": "updateInstructor",
      "outputs": [],
      "payable": false,
      "stateMutability": "nonpayable",
      "type": "function",
      "signature": "0x0a78f7eb"
    }
  ],
  "bytecode": "0x60806040526000600c556000600d5534801561001a57600080fd5b50615ca3806200002b6000396000f3fe6080604052600436106101f9576000357c0100000000000000000000000000000000000000000000000000000000900463ffffffff16806306ead22e146101fe5780630a78f7eb146102405780631464e65614610269578063156e0b5e1461029257806316e44d84146102bd57806321a59b86146102e65780632601c64a146103235780632ccf5542146103605780633050d0a5146103895780633206b2c6146103b457806342444471146103f55780635407b3041461041e5780635ef051451461045b578063616241f11461049c57806366055159146104c557806369cc0e93146104f0578063728e2274146105195780637f5b8f57146105425780638d5325541461056d5780638dae48f9146105ae57806393a92905146105d957806396f979d21461061a5780639a6b20871461065b5780639f3cd5701461069c578063a503898f146106c7578063a6570e73146106f2578063b1df93ec1461071b578063bd2ac12114610758578063c79697c514610783578063c8fb0793146107c0578063cb88dc7914610802578063cc9e300f14610843578063d141eab51461086e578063d41a011214610897578063d94a9fbb146108d8578063e581f9ee14610903578063e6a852cc1461092e578063e79899bd14610970578063ea5b210f146109b1578063f515fd05146109f2578063fd38fb1514610a1d575b600080fd5b34801561020a57600080fd5b5061022560048036036102209190810190614bdd565b610a5a565b60405161023796959493929190615898565b60405180910390f35b34801561024c57600080fd5b5061026760048036036102629190810190614d9a565b610d8e565b005b34801561027557600080fd5b50610290600480360361028b9190810190614e59565b610f4b565b005b34801561029e57600080fd5b506102a76110a6565b6040516102b491906155a3565b60405180910390f35b3480156102c957600080fd5b506102e460048036036102df9190810190614d07565b611300565b005b3480156102f257600080fd5b5061030d60048036036103089190810190614bdd565b61146e565b60405161031a9190615581565b60405180910390f35b34801561032f57600080fd5b5061034a60048036036103459190810190614ee8565b611746565b60405161035791906155e7565b60405180910390f35b34801561036c57600080fd5b5061038760048036036103829190810190614c06565b6117d1565b005b34801561039557600080fd5b5061039e611a37565b6040516103ab919061555f565b60405180910390f35b3480156103c057600080fd5b506103db60048036036103d69190810190614bdd565b611b61565b6040516103ec9594939291906159de565b60405180910390f35b34801561040157600080fd5b5061041c60048036036104179190810190614b76565b611cdf565b005b34801561042a57600080fd5b5061044560048036036104409190810190614bdd565b611dec565b60405161045291906155e7565b60405180910390f35b34801561046757600080fd5b50610482600480360361047d9190810190614bdd565b611e0f565b604051610493959493929190615a92565b60405180910390f35b3480156104a857600080fd5b506104c360048036036104be9190810190614d9a565b611f84565b005b3480156104d157600080fd5b506104da612170565b6040516104e79190615737565b60405180910390f35b3480156104fc57600080fd5b5061051760048036036105129190810190614f24565b612176565b005b34801561052557600080fd5b50610540600480360361053b9190810190614c06565b6122eb565b005b34801561054e57600080fd5b50610557612523565b6040516105649190615581565b60405180910390f35b34801561057957600080fd5b50610594600480360361058f9190810190614bdd565b6126e5565b6040516105a595949392919061591c565b60405180910390f35b3480156105ba57600080fd5b506105c36128e3565b6040516105d09190615737565b60405180910390f35b3480156105e557600080fd5b5061060060048036036105fb9190810190614bdd565b6128e9565b6040516106119594939291906157d6565b60405180910390f35b34801561062657600080fd5b50610641600480360361063c9190810190614bdd565b612ba7565b604051610652959493929190615984565b60405180910390f35b34801561066757600080fd5b50610682600480360361067d9190810190614bdd565b612c75565b604051610693959493929190615a92565b60405180910390f35b3480156106a857600080fd5b506106b1612ddb565b6040516106be9190615737565b60405180910390f35b3480156106d357600080fd5b506106dc612de1565b6040516106e99190615737565b60405180910390f35b3480156106fe57600080fd5b5061071960048036036107149190810190614e59565b612de7565b005b34801561072757600080fd5b50610742600480360361073d9190810190614bdd565b612f16565b60405161074f91906155e7565b60405180910390f35b34801561076457600080fd5b5061076d612f39565b60405161077a9190615737565b60405180910390f35b34801561078f57600080fd5b506107aa60048036036107a59190810190614bdd565b612f3f565b6040516107b791906155e7565b60405180910390f35b3480156107cc57600080fd5b506107e760048036036107e29190810190614bdd565b612f5f565b6040516107f996959493929190615752565b60405180910390f35b34801561080e57600080fd5b5061082960048036036108249190810190614bdd565b613352565b60405161083a959493929190615984565b60405180910390f35b34801561084f57600080fd5b5061085861342f565b6040516108659190615737565b60405180910390f35b34801561087a57600080fd5b5061089560048036036108909190810190614d07565b613439565b005b3480156108a357600080fd5b506108be60048036036108b99190810190614bdd565b613cf3565b6040516108cf95949392919061591c565b60405180910390f35b3480156108e457600080fd5b506108ed613f00565b6040516108fa9190615737565b60405180910390f35b34801561090f57600080fd5b50610918613f06565b6040516109259190615737565b60405180910390f35b34801561093a57600080fd5b5061095560048036036109509190810190614bdd565b613f0c565b60405161096796959493929190615898565b60405180910390f35b34801561097c57600080fd5b5061099760048036036109929190810190614bdd565b61424f565b6040516109a8959493929190615a38565b60405180910390f35b3480156109bd57600080fd5b506109d860048036036109d39190810190614bdd565b61432c565b6040516109e995949392919061583e565b60405180910390f35b3480156109fe57600080fd5b50610a076144b3565b604051610a1491906155c5565b60405180910390f35b348015610a2957600080fd5b50610a446004803603610a3f9190810190614bdd565b614847565b604051610a5191906155e7565b60405180910390f35b6000602052806000526040600020600091509050806000015490806001018054600181600116156101000203166002900480601f016020809104026020016040519081016040528092919081815260200182805460018160011615610100020316600290048015610b0c5780601f10610ae157610100808354040283529160200191610b0c565b820191906000526020600020905b815481529060010190602001808311610aef57829003601f168201915b505050505090806002018054600181600116156101000203166002900480601f016020809104026020016040519081016040528092919081815260200182805460018160011615610100020316600290048015610baa5780601f10610b7f57610100808354040283529160200191610baa565b820191906000526020600020905b815481529060010190602001808311610b8d57829003601f168201915b505050505090806003018054600181600116156101000203166002900480601f016020809104026020016040519081016040528092919081815260200182805460018160011615610100020316600290048015610c485780601f10610c1d57610100808354040283529160200191610c48565b820191906000526020600020905b815481529060010190602001808311610c2b57829003601f168201915b505050505090806004018054600181600116156101000203166002900480601f016020809104026020016040519081016040528092919081815260200182805460018160011615610100020316600290048015610ce65780601f10610cbb57610100808354040283529160200191610ce6565b820191906000526020600020905b815481529060010190602001808311610cc957829003601f168201915b505050505090806005018054600181600116156101000203166002900480601f016020809104026020016040519081016040528092919081815260200182805460018160011615610100020316600290048015610d845780601f10610d5957610100808354040283529160200191610d84565b820191906000526020600020905b815481529060010190602001808311610d6757829003601f168201915b5050505050905086565b60a0604051908101604052808681526020018581526020018481526020018381526020018281525060036000878152602001908152602001600020600082015181600001556020820151816001019080519060200190610def929190614869565b50604082015181600201556060820151816003019080519060200190610e16929190614869565b506080820151816004019080519060200190610e33929190614869565b5090505060008090505b600b80549050811015610f435785600b82815481101515610e5a57fe5b9060005260206000209060050201600001541415610f365760036000878152602001908152602001600020600b82815481101515610e9457fe5b90600052602060002090600502016000820154816000015560018201816001019080546001816001161561010002031660029004610ed39291906148e9565b506002820154816002015560038201816003019080546001816001161561010002031660029004610f059291906148e9565b5060048201816004019080546001816001161561010002031660029004610f2d9291906148e9565b50905050610f43565b8080600101915050610e3d565b505050505050565b60a0604051908101604052808681526020018581526020018481526020018381526020018281525060016000878152602001908152602001600020600082015181600001556020820151816001019080519060200190610fac929190614869565b5060408201518160020155606082015181600301556080820151816004015590505060008090505b60098054905081101561109e5785600982815481101515610ff157fe5b9060005260206000209060050201600001541415611091576001600087815260200190815260200160002060098281548110151561102b57fe5b9060005260206000209060050201600082015481600001556001820181600101908054600181600116156101000203166002900461106a9291906148e9565b5060028201548160020155600382015481600301556004820154816004015590505061109e565b8080600101915050610fd4565b505050505050565b6060600b805480602002602001604051908101604052809291908181526020016000905b828210156112f7578382906000526020600020906005020160a0604051908101604052908160008201548152602001600182018054600181600116156101000203166002900480601f0160208091040260200160405190810160405280929190818152602001828054600181600116156101000203166002900480156111915780601f1061116657610100808354040283529160200191611191565b820191906000526020600020905b81548152906001019060200180831161117457829003601f168201915b5050505050815260200160028201548152602001600382018054600181600116156101000203166002900480601f01602080910402602001604051908101604052809291908181526020018280546001816001161561010002031660029004801561123d5780601f106112125761010080835404028352916020019161123d565b820191906000526020600020905b81548152906001019060200180831161122057829003601f168201915b50505050508152602001600482018054600181600116156101000203166002900480601f0160208091040260200160405190810160405280929190818152602001828054600181600116156101000203166002900480156112df5780601f106112b4576101008083540402835291602001916112df565b820191906000526020600020905b8154815290600101906020018083116112c257829003601f168201915b505050505081525050815260200190600101906110ca565b50505050905090565b60006002600086815260200190815260200160002090508381600301908051906020019061132f929190614970565b5082816004019080519060200190611348929190614970565b5060008090505b600a805490508110156114005785600a8281548110151561136c57fe5b90600052602060002090600502016000015414156113f35784600a8281548110151561139457fe5b906000526020600020906005020160030190805190602001906113b8929190614970565b5083600a828154811015156113c957fe5b906000526020600020906005020160040190805190602001906113ed929190614970565b50611400565b808060010191505061134f565b506001600e600087815260200190815260200160002060006101000a81548160ff021916908315150217905550847fa6679f3690087b3b1466a6de8c55d83e84594efb681afd637793baa5a7b56b87858560405161145f929190615602565b60405180910390a25050505050565b6060806006546040519080825280602002602001820160405280156114ad57816020015b61149a6149f0565b8152602001906001900390816114925790505b509050600080905060008090505b600a805490508110156116ac5784600a828154811015156114d857fe5b906000526020600020906005020160010154141561169f57600a818154811015156114ff57fe5b906000526020600020906005020160a06040519081016040529081600082015481526020016001820154815260200160028201548152602001600382018054600181600116156101000203166002900480601f0160208091040260200160405190810160405280929190818152602001828054600181600116156101000203166002900480156115d05780601f106115a5576101008083540402835291602001916115d0565b820191906000526020600020905b8154815290600101906020018083116115b357829003601f168201915b50505050508152602001600482018054600181600116156101000203166002900480601f0160208091040260200160405190810160405280929190818152602001828054600181600116156101000203166002900480156116725780601f1061164757610100808354040283529160200191611672565b820191906000526020600020905b81548152906001019060200180831161165557829003601f168201915b505050505081525050838381518110151561168957fe5b9060200190602002018190525081806001019250505b80806001019150506114bb565b506060816040519080825280602002602001820160405280156116e957816020015b6116d66149f0565b8152602001906001900390816116ce5790505b50905060008090505b8281101561173a57838181518110151561170857fe5b90602001906020020151828281518110151561172057fe5b9060200190602002018190525080806001019150506116f2565b50809350505050919050565b600080600090505b600a805490508110156117c55783600a8281548110151561176b57fe5b9060005260206000209060050201600101541480156117a9575082600a8281548110151561179557fe5b906000526020600020906005020160020154145b156117b85760019150506117cb565b808060010191505061174e565b50600090505b92915050565b60008060008881526020019081526020016000206000015414151561182b576040517f08c379a000000000000000000000000000000000000000000000000000000000815260040161182290615697565b60405180910390fd5b60c06040519081016040528087815260200186815260200185815260200184815260200183815260200182815250600080888152602001908152602001600020600082015181600001556020820151816001019080519060200190611891929190614869565b5060408201518160020190805190602001906118ae929190614869565b5060608201518160030190805190602001906118cb929190614869565b5060808201518160040190805190602001906118e8929190614869565b5060a0820151816005019080519060200190611905929190614869565b50905050600460008154809291906001019190505550600860008088815260200190815260200160002090806001815401808255809150509060018203906000526020600020906006020160009091929091909150600082015481600001556001820181600101908054600181600116156101000203166002900461198b9291906148e9565b50600282018160020190805460018160011615610100020316600290046119b39291906148e9565b50600382018160030190805460018160011615610100020316600290046119db9291906148e9565b5060048201816004019080546001816001161561010002031660029004611a039291906148e9565b5060058201816005019080546001816001161561010002031660029004611a2b9291906148e9565b50505050505050505050565b60606009805480602002602001604051908101604052809291908181526020016000905b82821015611b58578382906000526020600020906005020160a0604051908101604052908160008201548152602001600182018054600181600116156101000203166002900480601f016020809104026020016040519081016040528092919081815260200182805460018160011615610100020316600290048015611b225780601f10611af757610100808354040283529160200191611b22565b820191906000526020600020905b815481529060010190602001808311611b0557829003601f168201915b50505050508152602001600282015481526020016003820154815260200160048201548152505081526020019060010190611a5b565b50505050905090565b6000806060600080600f8054905086101515611bb2576040517f08c379a0000000000000000000000000000000000000000000000000000000008152600401611ba9906156f7565b60405180910390fd5b611bba614a20565b600f87815481101515611bc957fe5b906000526020600020906005020160a060405190810160405290816000820154815260200160018201548152602001600282018054600181600116156101000203166002900480601f016020809104026020016040519081016040528092919081815260200182805460018160011615610100020316600290048015611c905780601f10611c6557610100808354040283529160200191611c90565b820191906000526020600020905b815481529060010190602001808311611c7357829003601f168201915b5050505050815260200160038201548152602001600482015481525050905080600001518160200151826040015183606001518460800151829250955095509550955095505091939590929450565b6000429050611cec614a20565b60a0604051908101604052806001601054018152602001838152602001868152602001858152602001848152509050600f819080600181540180825580915050906001820390600052602060002090600502016000909192909190915060008201518160000155602082015181600101556040820151816002019080519060200190611d79929190614869565b506060820151816003015560808201518160040155505050816001601054017f61ed8260aed342b0c08c82f4f1241e9bc40d88e5d07403a1aa93ea68d2448743878787604051611dcb93929190615639565b60405180910390a36010600081548092919060010191905055505050505050565b600080600160008481526020019081526020016000206000015414159050919050565b600a81815481101515611e1e57fe5b9060005260206000209060050201600091509050806000015490806001015490806002015490806003018054600181600116156101000203166002900480601f016020809104026020016040519081016040528092919081815260200182805460018160011615610100020316600290048015611edc5780601f10611eb157610100808354040283529160200191611edc565b820191906000526020600020905b815481529060010190602001808311611ebf57829003601f168201915b505050505090806004018054600181600116156101000203166002900480601f016020809104026020016040519081016040528092919081815260200182805460018160011615610100020316600290048015611f7a5780601f10611f4f57610100808354040283529160200191611f7a565b820191906000526020600020905b815481529060010190602001808311611f5d57829003601f168201915b5050505050905085565b60006003600087815260200190815260200160002060000154141515611fdf576040517f08c379a0000000000000000000000000000000000000000000000000000000008152600401611fd690615677565b60405180910390fd5b60a0604051908101604052808681526020018581526020018481526020018381526020018281525060036000878152602001908152602001600020600082015181600001556020820151816001019080519060200190612040929190614869565b50604082015181600201556060820151816003019080519060200190612067929190614869565b506080820151816004019080519060200190612084929190614869565b50905050600760008154809291906001019190505550600b6003600087815260200190815260200160002090806001815401808255809150509060018203906000526020600020906005020160009091929091909150600082015481600001556001820181600101908054600181600116156101000203166002900461210b9291906148e9565b50600282015481600201556003820181600301908054600181600116156101000203166002900461213d9291906148e9565b50600482018160040190805460018160011615610100020316600290046121659291906148e9565b505050505050505050565b60055481565b6000600c600081548092919060010191905055905060a06040519081016040528082815260200186815260200185815260200184815260200183815250600260008381526020019081526020016000206000820151816000015560208201518160010155604082015181600201556060820151816003019080519060200190612200929190614869565b50608082015181600401908051906020019061221d929190614869565b50905050600660008154809291906001019190505550600a6002600083815260200190815260200160002090806001815401808255809150509060018203906000526020600020906005020160009091929091909150600082015481600001556001820154816001015560028201548160020155600382018160030190805460018160011615610100020316600290046122b89291906148e9565b50600482018160040190805460018160011615610100020316600290046122e09291906148e9565b505050505050505050565b60c06040519081016040528087815260200186815260200185815260200184815260200183815260200182815250600080888152602001908152602001600020600082015181600001556020820151816001019080519060200190612351929190614869565b50604082015181600201908051906020019061236e929190614869565b50606082015181600301908051906020019061238b929190614869565b5060808201518160040190805190602001906123a8929190614869565b5060a08201518160050190805190602001906123c5929190614869565b5090505060008090505b60088054905081101561251a57866008828154811015156123ec57fe5b906000526020600020906006020160000154141561250d5760008088815260200190815260200160002060088281548110151561242557fe5b906000526020600020906006020160008201548160000155600182018160010190805460018160011615610100020316600290046124649291906148e9565b506002820181600201908054600181600116156101000203166002900461248c9291906148e9565b50600382018160030190805460018160011615610100020316600290046124b49291906148e9565b50600482018160040190805460018160011615610100020316600290046124dc9291906148e9565b50600582018160050190805460018160011615610100020316600290046125049291906148e9565b5090505061251a565b80806001019150506123cf565b50505050505050565b6060600a805480602002602001604051908101604052809291908181526020016000905b828210156126dc578382906000526020600020906005020160a06040519081016040529081600082015481526020016001820154815260200160028201548152602001600382018054600181600116156101000203166002900480601f0160208091040260200160405190810160405280929190818152602001828054600181600116156101000203166002900480156126225780601f106125f757610100808354040283529160200191612622565b820191906000526020600020905b81548152906001019060200180831161260557829003601f168201915b50505050508152602001600482018054600181600116156101000203166002900480601f0160208091040260200160405190810160405280929190818152602001828054600181600116156101000203166002900480156126c45780601f10612699576101008083540402835291602001916126c4565b820191906000526020600020905b8154815290600101906020018083116126a757829003601f168201915b50505050508152505081526020019060010190612547565b50505050905090565b6003602052806000526040600020600091509050806000015490806001018054600181600116156101000203166002900480601f0160208091040260200160405190810160405280929190818152602001828054600181600116156101000203166002900480156127975780601f1061276c57610100808354040283529160200191612797565b820191906000526020600020905b81548152906001019060200180831161277a57829003601f168201915b505050505090806002015490806003018054600181600116156101000203166002900480601f01602080910402602001604051908101604052809291908181526020018280546001816001161561010002031660029004801561283b5780601f106128105761010080835404028352916020019161283b565b820191906000526020600020905b81548152906001019060200180831161281e57829003601f168201915b505050505090806004018054600181600116156101000203166002900480601f0160208091040260200160405190810160405280929190818152602001828054600181600116156101000203166002900480156128d95780601f106128ae576101008083540402835291602001916128d9565b820191906000526020600020905b8154815290600101906020018083116128bc57829003601f168201915b5050505050905085565b60075481565b600060606000606080600060036000888152602001908152602001600020600001541415151561294e576040517f08c379a0000000000000000000000000000000000000000000000000000000008152600401612945906156d7565b60405180910390fd5b612956614a50565b6003600088815260200190815260200160002060a0604051908101604052908160008201548152602001600182018054600181600116156101000203166002900480601f016020809104026020016040519081016040528092919081815260200182805460018160011615610100020316600290048015612a185780601f106129ed57610100808354040283529160200191612a18565b820191906000526020600020905b8154815290600101906020018083116129fb57829003601f168201915b5050505050815260200160028201548152602001600382018054600181600116156101000203166002900480601f016020809104026020016040519081016040528092919081815260200182805460018160011615610100020316600290048015612ac45780601f10612a9957610100808354040283529160200191612ac4565b820191906000526020600020905b815481529060010190602001808311612aa757829003601f168201915b50505050508152602001600482018054600181600116156101000203166002900480601f016020809104026020016040519081016040528092919081815260200182805460018160011615610100020316600290048015612b665780601f10612b3b57610100808354040283529160200191612b66565b820191906000526020600020905b815481529060010190602001808311612b4957829003601f168201915b505050505081525050905080600001518160200151826040015183606001518460800151839350819150809050955095509550955095505091939590929450565b6001602052806000526040600020600091509050806000015490806001018054600181600116156101000203166002900480601f016020809104026020016040519081016040528092919081815260200182805460018160011615610100020316600290048015612c595780601f10612c2e57610100808354040283529160200191612c59565b820191906000526020600020905b815481529060010190602001808311612c3c57829003601f168201915b5050505050908060020154908060030154908060040154905085565b6002602052806000526040600020600091509050806000015490806001015490806002015490806003018054600181600116156101000203166002900480601f016020809104026020016040519081016040528092919081815260200182805460018160011615610100020316600290048015612d335780601f10612d0857610100808354040283529160200191612d33565b820191906000526020600020905b815481529060010190602001808311612d1657829003601f168201915b505050505090806004018054600181600116156101000203166002900480601f016020809104026020016040519081016040528092919081815260200182805460018160011615610100020316600290048015612dd15780601f10612da657610100808354040283529160200191612dd1565b820191906000526020600020905b815481529060010190602001808311612db457829003601f168201915b5050505050905085565b600c5481565b60105481565b60a0604051908101604052808681526020018581526020018481526020018381526020018281525060016000878152602001908152602001600020600082015181600001556020820151816001019080519060200190612e48929190614869565b50604082015181600201556060820151816003015560808201518160040155905050600560008154809291906001019190505550600960016000878152602001908152602001600020908060018154018082558091505090600182039060005260206000209060050201600090919290919091506000820154816000015560018201816001019080546001816001161561010002031660029004612eed9291906148e9565b506002820154816002015560038201548160030155600482015481600401555050505050505050565b600080600360008481526020019081526020016000206000015414159050919050565b60065481565b600e6020528060005260406000206000915054906101000a900460ff1681565b60006060806060806060612f7287614847565b1515612fb3576040517f08c379a0000000000000000000000000000000000000000000000000000000008152600401612faa906156b7565b60405180910390fd5b612fbb614a80565b60008089815260200190815260200160002060c0604051908101604052908160008201548152602001600182018054600181600116156101000203166002900480601f01602080910402602001604051908101604052809291908181526020018280546001816001161561010002031660029004801561307c5780601f106130515761010080835404028352916020019161307c565b820191906000526020600020905b81548152906001019060200180831161305f57829003601f168201915b50505050508152602001600282018054600181600116156101000203166002900480601f01602080910402602001604051908101604052809291908181526020018280546001816001161561010002031660029004801561311e5780601f106130f35761010080835404028352916020019161311e565b820191906000526020600020905b81548152906001019060200180831161310157829003601f168201915b50505050508152602001600382018054600181600116156101000203166002900480601f0160208091040260200160405190810160405280929190818152602001828054600181600116156101000203166002900480156131c05780601f10613195576101008083540402835291602001916131c0565b820191906000526020600020905b8154815290600101906020018083116131a357829003601f168201915b50505050508152602001600482018054600181600116156101000203166002900480601f0160208091040260200160405190810160405280929190818152602001828054600181600116156101000203166002900480156132625780601f1061323757610100808354040283529160200191613262565b820191906000526020600020905b81548152906001019060200180831161324557829003601f168201915b50505050508152602001600582018054600181600116156101000203166002900480601f0160208091040260200160405190810160405280929190818152602001828054600181600116156101000203166002900480156133045780601f106132d957610100808354040283529160200191613304565b820191906000526020600020905b8154815290600101906020018083116132e757829003601f168201915b5050505050815250509050806000015181602001518260400151836060015184608001518560a001518494508393508292508191508090509650965096509650965096505091939550919395565b60098181548110151561336157fe5b9060005260206000209060050201600091509050806000015490806001018054600181600116156101000203166002900480601f0160208091040260200160405190810160405280929190818152602001828054600181600116156101000203166002900480156134135780601f106133e857610100808354040283529160200191613413565b820191906000526020600020905b8154815290600101906020018083116133f657829003601f168201915b5050505050908060020154908060030154908060040154905085565b6000601054905090565b600060026000868152602001908152602001600020905060608060405190810160405280602181526020017fc49069e1bb836d2063c3b3206e68e1bbaf6e67207468617920c491e1bb95693a81526020017f20000000000000000000000000000000000000000000000000000000000000008152509050846040516020018082805190602001908083835b6020831015156134e957805182526020820191506020810190506020830392506134c4565b6001836020036101000a038019825116818451168082178552505050505050905001915050604051602081830303815290604052805190602001208260030160405160200180828054600181600116156101000203166002900480156135865780601f10613564576101008083540402835291820191613586565b820191906000526020600020905b815481529060010190602001808311613572575b505091505060405160208183030381529060405280519060200120141515613743578082600301866040516020018084805190602001908083835b6020831015156135e657805182526020820191506020810190506020830392506135c1565b6001836020036101000a038019825116818451168082178552505050505050905001807fc49169e1bb836d20474b20c491e1bb95692074e1bbab20270000000000000000815250601801838054600181600116156101000203166002900480156136875780601f10613665576101008083540402835291820191613687565b820191906000526020600020905b815481529060010190602001808311613673575b5050807f27207468c3a06e68202700000000000000000000000000000000000000000000815250600a0182805190602001908083835b6020831015156136e257805182526020820191506020810190506020830392506136bd565b6001836020036101000a038019825116818451168082178552505050505050905001807f272c200000000000000000000000000000000000000000000000000000000000815250600301935050505060405160208183030381529060405290505b836040516020018082805190602001908083835b60208310151561377c5780518252602082019150602081019050602083039250613757565b6001836020036101000a038019825116818451168082178552505050505050905001915050604051602081830303815290604052805190602001208260040160405160200180828054600181600116156101000203166002900480156138195780601f106137f7576101008083540402835291820191613819565b820191906000526020600020905b815481529060010190602001808311613805575b5050915050604051602081830303815290604052805190602001201415156139d6578082600401856040516020018084805190602001908083835b6020831015156138795780518252602082019150602081019050602083039250613854565b6001836020036101000a038019825116818451168082178552505050505050905001807fc49169e1bb836d20544b20c491e1bb95692074e1bbab202700000000000000008152506018018380546001816001161561010002031660029004801561391a5780601f106138f857610100808354040283529182019161391a565b820191906000526020600020905b815481529060010190602001808311613906575b5050807f27207468c3a06e68202700000000000000000000000000000000000000000000815250600a0182805190602001908083835b6020831015156139755780518252602082019150602081019050602083039250613950565b6001836020036101000a038019825116818451168082178552505050505050905001807f272c200000000000000000000000000000000000000000000000000000000000815250600301935050505060405160208183030381529060405290505b60008151118015613a8457507f2c00000000000000000000000000000000000000000000000000000000000000816001835103815181101515613a1557fe5b9060200101517f010000000000000000000000000000000000000000000000000000000000000090047f0100000000000000000000000000000000000000000000000000000000000000027effffffffffffffffffffffffffffffffffffffffffffffffffffffffffffff1916145b15613b8157606060028251036040519080825280601f01601f191660200182016040528015613ac25781602001600182028038833980820191505090505b50905060008090505b6002835103811015613b7b578281815181101515613ae557fe5b9060200101517f010000000000000000000000000000000000000000000000000000000000000090047f0100000000000000000000000000000000000000000000000000000000000000028282815181101515613b3e57fe5b9060200101907effffffffffffffffffffffffffffffffffffffffffffffffffffffffffffff1916908160001a9053508080600101915050613acb565b50809150505b600081511115613ceb57613b9a81836001015485611cdf565b84826003019080519060200190613bb2929190614970565b5083826004019080519060200190613bcb929190614970565b5060008090505b600a80549050811015613c835786600a82815481101515613bef57fe5b9060005260206000209060050201600001541415613c765785600a82815481101515613c1757fe5b90600052602060002090600502016003019080519060200190613c3b929190614970565b5084600a82815481101515613c4c57fe5b90600052602060002090600502016004019080519060200190613c70929190614970565b50613c83565b8080600101915050613bd2565b506001600e600088815260200190815260200160002060006101000a81548160ff021916908315150217905550857fa6679f3690087b3b1466a6de8c55d83e84594efb681afd637793baa5a7b56b878686604051613ce2929190615602565b60405180910390a25b505050505050565b600b81815481101515613d0257fe5b9060005260206000209060050201600091509050806000015490806001018054600181600116156101000203166002900480601f016020809104026020016040519081016040528092919081815260200182805460018160011615610100020316600290048015613db45780601f10613d8957610100808354040283529160200191613db4565b820191906000526020600020905b815481529060010190602001808311613d9757829003601f168201915b505050505090806002015490806003018054600181600116156101000203166002900480601f016020809104026020016040519081016040528092919081815260200182805460018160011615610100020316600290048015613e585780601f10613e2d57610100808354040283529160200191613e58565b820191906000526020600020905b815481529060010190602001808311613e3b57829003601f168201915b505050505090806004018054600181600116156101000203166002900480601f016020809104026020016040519081016040528092919081815260200182805460018160011615610100020316600290048015613ef65780601f10613ecb57610100808354040283529160200191613ef6565b820191906000526020600020905b815481529060010190602001808311613ed957829003601f168201915b5050505050905085565b600d5481565b60045481565b600881815481101515613f1b57fe5b9060005260206000209060060201600091509050806000015490806001018054600181600116156101000203166002900480601f016020809104026020016040519081016040528092919081815260200182805460018160011615610100020316600290048015613fcd5780601f10613fa257610100808354040283529160200191613fcd565b820191906000526020600020905b815481529060010190602001808311613fb057829003601f168201915b505050505090806002018054600181600116156101000203166002900480601f01602080910402602001604051908101604052809291908181526020018280546001816001161561010002031660029004801561406b5780601f106140405761010080835404028352916020019161406b565b820191906000526020600020905b81548152906001019060200180831161404e57829003601f168201915b505050505090806003018054600181600116156101000203166002900480601f0160208091040260200160405190810160405280929190818152602001828054600181600116156101000203166002900480156141095780601f106140de57610100808354040283529160200191614109565b820191906000526020600020905b8154815290600101906020018083116140ec57829003601f168201915b505050505090806004018054600181600116156101000203166002900480601f0160208091040260200160405190810160405280929190818152602001828054600181600116156101000203166002900480156141a75780601f1061417c576101008083540402835291602001916141a7565b820191906000526020600020905b81548152906001019060200180831161418a57829003601f168201915b505050505090806005018054600181600116156101000203166002900480601f0160208091040260200160405190810160405280929190818152602001828054600181600116156101000203166002900480156142455780601f1061421a57610100808354040283529160200191614245565b820191906000526020600020905b81548152906001019060200180831161422857829003601f168201915b5050505050905086565b600f8181548110151561425e57fe5b9060005260206000209060050201600091509050806000015490806001015490806002018054600181600116156101000203166002900480601f0160208091040260200160405190810160405280929190818152602001828054600181600116156101000203166002900480156143165780601f106142eb57610100808354040283529160200191614316565b820191906000526020600020905b8154815290600101906020018083116142f957829003601f168201915b5050505050908060030154908060040154905085565b60006060600080600080600160008881526020019081526020016000206000015414151515614390576040517f08c379a000000000000000000000000000000000000000000000000000000000815260040161438790615717565b60405180910390fd5b614398614ab7565b6001600088815260200190815260200160002060a0604051908101604052908160008201548152602001600182018054600181600116156101000203166002900480601f01602080910402602001604051908101604052809291908181526020018280546001816001161561010002031660029004801561445a5780601f1061442f5761010080835404028352916020019161445a565b820191906000526020600020905b81548152906001019060200180831161443d57829003601f168201915b505050505081526020016002820154815260200160038201548152602001600482015481525050905080600001518160200151826040015183606001518460800151839350955095509550955095505091939590929450565b60606008805480602002602001604051908101604052809291908181526020016000905b8282101561483e578382906000526020600020906006020160c0604051908101604052908160008201548152602001600182018054600181600116156101000203166002900480601f01602080910402602001604051908101604052809291908181526020018280546001816001161561010002031660029004801561459e5780601f106145735761010080835404028352916020019161459e565b820191906000526020600020905b81548152906001019060200180831161458157829003601f168201915b50505050508152602001600282018054600181600116156101000203166002900480601f0160208091040260200160405190810160405280929190818152602001828054600181600116156101000203166002900480156146405780601f1061461557610100808354040283529160200191614640565b820191906000526020600020905b81548152906001019060200180831161462357829003601f168201915b50505050508152602001600382018054600181600116156101000203166002900480601f0160208091040260200160405190810160405280929190818152602001828054600181600116156101000203166002900480156146e25780601f106146b7576101008083540402835291602001916146e2565b820191906000526020600020905b8154815290600101906020018083116146c557829003601f168201915b50505050508152602001600482018054600181600116156101000203166002900480601f0160208091040260200160405190810160405280929190818152602001828054600181600116156101000203166002900480156147845780601f1061475957610100808354040283529160200191614784565b820191906000526020600020905b81548152906001019060200180831161476757829003601f168201915b50505050508152602001600582018054600181600116156101000203166002900480601f0160208091040260200160405190810160405280929190818152602001828054600181600116156101000203166002900480156148265780601f106147fb57610100808354040283529160200191614826565b820191906000526020600020905b81548152906001019060200180831161480957829003601f168201915b505050505081525050815260200190600101906144d7565b50505050905090565b6000806000808481526020019081526020016000206000015414159050919050565b828054600181600116156101000203166002900490600052602060002090601f016020900481019282601f106148aa57805160ff19168380011785556148d8565b828001600101855582156148d8579182015b828111156148d75782518255916020019190600101906148bc565b5b5090506148e59190614ae7565b5090565b828054600181600116156101000203166002900490600052602060002090601f016020900481019282601f10614922578054855561495f565b8280016001018555821561495f57600052602060002091601f016020900482015b8281111561495e578254825591600101919060010190614943565b5b50905061496c9190614ae7565b5090565b828054600181600116156101000203166002900490600052602060002090601f016020900481019282601f106149b157805160ff19168380011785556149df565b828001600101855582156149df579182015b828111156149de5782518255916020019190600101906149c3565b5b5090506149ec9190614ae7565b5090565b60a06040519081016040528060008152602001600081526020016000815260200160608152602001606081525090565b60a06040519081016040528060008152602001600081526020016060815260200160008152602001600081525090565b60a06040519081016040528060008152602001606081526020016000815260200160608152602001606081525090565b60c0604051908101604052806000815260200160608152602001606081526020016060815260200160608152602001606081525090565b60a06040519081016040528060008152602001606081526020016000815260200160008152602001600081525090565b614b0991905b80821115614b05576000816000905550600101614aed565b5090565b90565b600082601f8301121515614b1f57600080fd5b8135614b32614b2d82615b20565b615af3565b91508082526020830160208301858383011115614b4e57600080fd5b614b59838284615c16565b50505092915050565b6000614b6e8235615c0c565b905092915050565b600080600060608486031215614b8b57600080fd5b600084013567ffffffffffffffff811115614ba557600080fd5b614bb186828701614b0c565b9350506020614bc286828701614b62565b9250506040614bd386828701614b62565b9150509250925092565b600060208284031215614bef57600080fd5b6000614bfd84828501614b62565b91505092915050565b60008060008060008060c08789031215614c1f57600080fd5b6000614c2d89828a01614b62565b965050602087013567ffffffffffffffff811115614c4a57600080fd5b614c5689828a01614b0c565b955050604087013567ffffffffffffffff811115614c7357600080fd5b614c7f89828a01614b0c565b945050606087013567ffffffffffffffff811115614c9c57600080fd5b614ca889828a01614b0c565b935050608087013567ffffffffffffffff811115614cc557600080fd5b614cd189828a01614b0c565b92505060a087013567ffffffffffffffff811115614cee57600080fd5b614cfa89828a01614b0c565b9150509295509295509295565b60008060008060808587031215614d1d57600080fd5b6000614d2b87828801614b62565b945050602085013567ffffffffffffffff811115614d4857600080fd5b614d5487828801614b0c565b935050604085013567ffffffffffffffff811115614d7157600080fd5b614d7d87828801614b0c565b9250506060614d8e87828801614b62565b91505092959194509250565b600080600080600060a08688031215614db257600080fd5b6000614dc088828901614b62565b955050602086013567ffffffffffffffff811115614ddd57600080fd5b614de988828901614b0c565b9450506040614dfa88828901614b62565b935050606086013567ffffffffffffffff811115614e1757600080fd5b614e2388828901614b0c565b925050608086013567ffffffffffffffff811115614e4057600080fd5b614e4c88828901614b0c565b9150509295509295909350565b600080600080600060a08688031215614e7157600080fd5b6000614e7f88828901614b62565b955050602086013567ffffffffffffffff811115614e9c57600080fd5b614ea888828901614b0c565b9450506040614eb988828901614b62565b9350506060614eca88828901614b62565b9250506080614edb88828901614b62565b9150509295509295909350565b60008060408385031215614efb57600080fd5b6000614f0985828601614b62565b9250506020614f1a85828601614b62565b9150509250929050565b60008060008060808587031215614f3a57600080fd5b6000614f4887828801614b62565b9450506020614f5987828801614b62565b935050604085013567ffffffffffffffff811115614f7657600080fd5b614f8287828801614b0c565b925050606085013567ffffffffffffffff811115614f9f57600080fd5b614fab87828801614b0c565b91505092959194509250565b6000614fc282615b80565b80845260208401935083602082028501614fdb85615b4c565b60005b84811015615014578383038852614ff6838351615334565b925061500182615bc2565b9150602088019750600181019050614fde565b508196508694505050505092915050565b600061503082615b8b565b8084526020840193508360208202850161504985615b59565b60005b848110156150825783830388526150648383516153aa565b925061506f82615bcf565b915060208801975060018101905061504c565b508196508694505050505092915050565b600061509e82615b96565b808452602084019350836020820285016150b785615b66565b60005b848110156150f05783830388526150d2838351615427565b92506150dd82615bdc565b91506020880197506001810190506150ba565b508196508694505050505092915050565b600061510c82615ba1565b8084526020840193508360208202850161512585615b73565b60005b8481101561515e5783830388526151408383516154ab565b925061514b82615be9565b9150602088019750600181019050615128565b508196508694505050505092915050565b61517881615bf6565b82525050565b600061518982615bb7565b80845261519d816020860160208601615c25565b6151a681615c58565b602085010191505092915050565b60006151bf82615bac565b8084526151d3816020860160208601615c25565b6151dc81615c58565b602085010191505092915050565b6000601c82527f496e7374727563746f7220494420616c726561647920657869737473000000006020830152604082019050919050565b6000601982527f53747564656e7420494420616c726561647920657869737473000000000000006020830152604082019050919050565b6000601682527f53747564656e7420646f6573206e6f74206578697374000000000000000000006020830152604082019050919050565b6000601982527f496e7374727563746f7220646f6573206e6f74206578697374000000000000006020830152604082019050919050565b6000601182527f496e76616c6964206c6f6720696e6465780000000000000000000000000000006020830152604082019050919050565b6000601582527f436f7572736520646f6573206e6f7420657869737400000000000000000000006020830152604082019050919050565b600060a08301600083015161534c6000860182615550565b506020830151848203602086015261536482826151b4565b91505060408301516153796040860182615550565b50606083015161538c6060860182615550565b50608083015161539f6080860182615550565b508091505092915050565b600060a0830160008301516153c26000860182615550565b5060208301516153d56020860182615550565b5060408301516153e86040860182615550565b506060830151848203606086015261540082826151b4565b9150506080830151848203608086015261541a82826151b4565b9150508091505092915050565b600060a08301600083015161543f6000860182615550565b506020830151848203602086015261545782826151b4565b915050604083015161546c6040860182615550565b506060830151848203606086015261548482826151b4565b9150506080830151848203608086015261549e82826151b4565b9150508091505092915050565b600060c0830160008301516154c36000860182615550565b50602083015184820360208601526154db82826151b4565b915050604083015184820360408601526154f582826151b4565b9150506060830151848203606086015261550f82826151b4565b9150506080830151848203608086015261552982826151b4565b91505060a083015184820360a086015261554382826151b4565b9150508091505092915050565b61555981615c02565b82525050565b600060208201905081810360008301526155798184614fb7565b905092915050565b6000602082019050818103600083015261559b8184615025565b905092915050565b600060208201905081810360008301526155bd8184615093565b905092915050565b600060208201905081810360008301526155df8184615101565b905092915050565b60006020820190506155fc600083018461516f565b92915050565b6000604082019050818103600083015261561c818561517e565b90508181036020830152615630818461517e565b90509392505050565b60006060820190508181036000830152615653818661517e565b90506156626020830185615550565b61566f6040830184615550565b949350505050565b60006020820190508181036000830152615690816151ea565b9050919050565b600060208201905081810360008301526156b081615221565b9050919050565b600060208201905081810360008301526156d081615258565b9050919050565b600060208201905081810360008301526156f08161528f565b9050919050565b60006020820190508181036000830152615710816152c6565b9050919050565b60006020820190508181036000830152615730816152fd565b9050919050565b600060208201905061574c6000830184615550565b92915050565b600060c0820190506157676000830189615550565b8181036020830152615779818861517e565b9050818103604083015261578d818761517e565b905081810360608301526157a1818661517e565b905081810360808301526157b5818561517e565b905081810360a08301526157c9818461517e565b9050979650505050505050565b600060a0820190506157eb6000830188615550565b81810360208301526157fd818761517e565b905061580c6040830186615550565b818103606083015261581e818561517e565b90508181036080830152615832818461517e565b90509695505050505050565b600060a0820190506158536000830188615550565b8181036020830152615865818761517e565b90506158746040830186615550565b6158816060830185615550565b61588e6080830184615550565b9695505050505050565b600060c0820190506158ad6000830189615550565b81810360208301526158bf81886151b4565b905081810360408301526158d381876151b4565b905081810360608301526158e781866151b4565b905081810360808301526158fb81856151b4565b905081810360a083015261590f81846151b4565b9050979650505050505050565b600060a0820190506159316000830188615550565b818103602083015261594381876151b4565b90506159526040830186615550565b818103606083015261596481856151b4565b9050818103608083015261597881846151b4565b90509695505050505050565b600060a0820190506159996000830188615550565b81810360208301526159ab81876151b4565b90506159ba6040830186615550565b6159c76060830185615550565b6159d46080830184615550565b9695505050505050565b600060a0820190506159f36000830188615550565b615a006020830187615550565b8181036040830152615a12818661517e565b9050615a216060830185615550565b615a2e6080830184615550565b9695505050505050565b600060a082019050615a4d6000830188615550565b615a5a6020830187615550565b8181036040830152615a6c81866151b4565b9050615a7b6060830185615550565b615a886080830184615550565b9695505050505050565b600060a082019050615aa76000830188615550565b615ab46020830187615550565b615ac16040830186615550565b8181036060830152615ad381856151b4565b90508181036080830152615ae781846151b4565b90509695505050505050565b6000604051905081810181811067ffffffffffffffff82111715615b1657600080fd5b8060405250919050565b600067ffffffffffffffff821115615b3757600080fd5b601f19601f8301169050602081019050919050565b6000602082019050919050565b6000602082019050919050565b6000602082019050919050565b6000602082019050919050565b600081519050919050565b600081519050919050565b600081519050919050565b600081519050919050565b600081519050919050565b600081519050919050565b6000602082019050919050565b6000602082019050919050565b6000602082019050919050565b6000602082019050919050565b60008115159050919050565b6000819050919050565b6000819050919050565b82818337600083830152505050565b60005b83811015615c43578082015181840152602081019050615c28565b83811115615c52576000848401525b50505050565b6000601f19601f830116905091905056fea265627a7a723058209805c66f4b83f70fe7d717af060324b04c069e9a71451e72a1fa8b2c6f8781a86c6578706572696d656e74616cf50037",
  "source": "pragma solidity ^0.5.0;\npragma experimental ABIEncoderV2;\n\ncontract Marketplace {\n    \n    struct Student {\n        uint id;\n        string name;\n        string dateOfBirth;\n        string gender;\n        string residence;\n        string phoneNumber;\n    }\n    \n    struct Course {\n        uint id;\n        string courseName;\n        uint credits;\n        uint instructor;\n        uint option;\n    }\n\n    struct Enrollment {\n        uint id;\n        uint student_id;\n        uint course_id;\n        string grade_mid;\n        string grade_fi;\n    }\n\n    struct Instructor {\n       uint id;\n       string name;\n       uint degree;\n       string email;\n       string phone;\n    }\n\n      struct Log {\n        uint id;\n        uint timestamp;\n        string content;\n        uint studentId;\n        uint courseId;\n    }\n    mapping(uint => Student) public students;\n    mapping(uint => Course) public courses;\n    mapping(uint => Enrollment) public enrollments;\n     mapping(uint => Instructor) public instructors;\n    uint public studentCount;\n    uint public courseCount;\n    uint public enrollmentCount;\n     uint public instructorCount;\n\n    Student[] public allStudents;\n     Course[] public allCourses;\n     Enrollment[] public allEnrollments;\n      Instructor[] public allInstructors;\n\n     uint public nextEnrollmentId = 0;\n      uint public nextInstructorId = 0;\n\n       event EnrollmentUpdated(uint indexed enrollmentId, string newGradeMid, string newGradeFinal);\n         event LogAdded(uint indexed id, uint indexed timestamp, string content, uint studentId, uint courseId);\n\n      \n    mapping(uint => bool) public updatedEnrollments;\n\n      Log[] public logs;\n    uint public logCount;\n    \n    function addStudent(uint _id, string memory _name, string memory _dateOfBirth, string memory _gender, string memory _residence, string memory _phoneNumber) public {\n        require(students[_id].id == 0, \"Student ID already exists\");\n        \n        students[_id] = Student(_id, _name, _dateOfBirth, _gender, _residence, _phoneNumber);\n        studentCount++;\n        allStudents.push(students[_id]);\n    }\n\n    function addCourse(uint _id, string memory _courseName, uint _credits, uint _instructor, uint _option) public {\n        courses[_id] = Course(_id, _courseName, _credits, _instructor, _option);\n        courseCount++;\n\n        allCourses.push(courses[_id]);\n    }\n\n    function addEnrollment(uint _student_id, uint _course_id, string memory _grade_mid, string memory _grade_final) public {\n        uint enrollmentId = nextEnrollmentId++;\n        enrollments[enrollmentId] = Enrollment(enrollmentId, _student_id, _course_id, _grade_mid, _grade_final);\n        enrollmentCount++;\n        allEnrollments.push(enrollments[enrollmentId]);\n    }\n\n    function addInstructor(uint _id, string memory _name, uint _degree, string memory _email, string memory _phone) public {\n        require(instructors[_id].id == 0, \"Instructor ID already exists\");\n        instructors[_id] = Instructor(_id, _name, _degree, _email, _phone);\n        instructorCount++;\n        allInstructors.push(instructors[_id]);\n    }\n\n    function getallStudents() public view returns(Student[] memory) {\n        return allStudents;\n    }\n\n    function studentExists(uint _id) public view returns (bool) {\n        return students[_id].id != 0;\n    }\n\nfunction instructorExists(uint _id) public view returns (bool) {\n    return instructors[_id].id != 0;\n}\n\nfunction courseExists(uint _id) public view returns (bool) {\n    return courses[_id].id != 0;\n}\n\nfunction enrollmentExists(uint _studentId, uint _courseId) public view returns (bool) {\n    for (uint i = 0; i < allEnrollments.length; i++) {\n        if (allEnrollments[i].student_id == _studentId && allEnrollments[i].course_id == _courseId) {\n            return true;\n        }\n    }\n    return false;\n}\n     function getallCourses() public view returns(Course[] memory) {\n        return allCourses;\n    }\n\n    function getallEnrollments() public view returns(Enrollment[] memory) {\n        return allEnrollments;\n    }\n\n    function getAllInstructors() public view returns (Instructor[] memory) {\n        return allInstructors;\n    }\n\n    function getEnrollmentsByStudentId(uint _studentId) public view returns (Enrollment[] memory) {\n    Enrollment[] memory studentEnrollments = new Enrollment[](enrollmentCount);\n    uint studentEnrollmentCount = 0;\n    for (uint i = 0; i < allEnrollments.length; i++) {\n       \n        if (allEnrollments[i].student_id == _studentId) {\n            studentEnrollments[studentEnrollmentCount] = allEnrollments[i];\n            studentEnrollmentCount++;\n        }\n    }\n    Enrollment[] memory result = new Enrollment[](studentEnrollmentCount);\n    for (uint j = 0; j < studentEnrollmentCount; j++) {\n        result[j] = studentEnrollments[j];\n    }\n\n    return result;\n}\n\n    function getStudentById(uint _studentId) public view returns (uint, string memory, string memory, string memory, string memory, string memory) {\n        require(studentExists(_studentId), \"Student does not exist\");\n        Student memory student = students[_studentId];\n        return (student.id, student.name, student.dateOfBirth, student.gender, student.residence, student.phoneNumber);\n    }\n\nfunction getCourseById(uint _courseId) public view returns (uint, string memory, uint, uint, uint) {\n    require(courses[_courseId].id != 0, \"Course does not exist\");\n    Course memory course = courses[_courseId];\n    return (course.id, course.courseName, course.credits, course.instructor, course.option);\n}\n\nfunction getInstructorById(uint _instructorId) public view returns (uint, string memory, uint, string memory, string memory) {\n    require(instructors[_instructorId].id != 0, \"Instructor does not exist\");\n    Instructor memory instructor = instructors[_instructorId];\n    return (instructor.id, instructor.name, instructor.degree, instructor.email, instructor.phone);\n}\n\nfunction updateEnrollment(uint _enrollmentId, string memory _gradeMid, string memory _gradeFinal, uint _courseId) public {\n    \n    Enrollment storage enrollmentToUpdate = enrollments[_enrollmentId];\n\n    string memory logContent = \"im c nhng thay i: \";\n\n   \n    if (keccak256(abi.encodePacked(enrollmentToUpdate.grade_mid)) != keccak256(abi.encodePacked(_gradeMid))) {\n        logContent = string(abi.encodePacked(logContent, \"im GK i t '\", enrollmentToUpdate.grade_mid, \"' thnh '\", _gradeMid, \"', \"));\n    }\n    if (keccak256(abi.encodePacked(enrollmentToUpdate.grade_fi)) != keccak256(abi.encodePacked(_gradeFinal))) {\n        logContent = string(abi.encodePacked(logContent, \"im TK i t '\", enrollmentToUpdate.grade_fi, \"' thnh '\", _gradeFinal, \"', \"));\n    }\n\n    \n    if (bytes(logContent).length > 0 && bytes(logContent)[bytes(logContent).length - 1] == ',') {\n        bytes memory trimmedBytes = new bytes(bytes(logContent).length - 2);\n        for (uint i = 0; i < bytes(logContent).length - 2; i++) {\n            trimmedBytes[i] = bytes(logContent)[i];\n        }\n        logContent = string(trimmedBytes);\n    }\n\n    if (bytes(logContent).length > 0) {\n        _addLog(logContent, enrollmentToUpdate.student_id, _courseId);\n\n      \n        enrollmentToUpdate.grade_mid = _gradeMid;\n        enrollmentToUpdate.grade_fi = _gradeFinal;\n \n    for (uint i = 0; i < allEnrollments.length; i++) {\n        if (allEnrollments[i].id == _enrollmentId) {\n         \n            allEnrollments[i].grade_mid = _gradeMid;\n            allEnrollments[i].grade_fi = _gradeFinal;\n            break;\n        }\n    }\n\n    updatedEnrollments[_enrollmentId] = true;\n\n    emit EnrollmentUpdated(_enrollmentId, _gradeMid, _gradeFinal);\n    }\n\n\n  \n}\n\nfunction addGrade(uint _enrollmentId, string memory _gradeMid, string memory _gradeFinal, uint _courseId) public {\n \n    Enrollment storage enrollmentToUpdate = enrollments[_enrollmentId];\n\n    \n  \n        enrollmentToUpdate.grade_mid = _gradeMid;\n        enrollmentToUpdate.grade_fi = _gradeFinal;\n\n    for (uint i = 0; i < allEnrollments.length; i++) {\n        if (allEnrollments[i].id == _enrollmentId) {\n            allEnrollments[i].grade_mid = _gradeMid;\n            allEnrollments[i].grade_fi = _gradeFinal;\n            break;\n        }\n    }\n    updatedEnrollments[_enrollmentId] = true;\n    emit EnrollmentUpdated(_enrollmentId, _gradeMid, _gradeFinal);\n    \n}\n\n\n function _addLog(string memory _content, uint _studentId, uint _courseId) public {\n        uint timestamp = block.timestamp;\n        Log memory newLog = Log(logCount + 1, timestamp, _content, _studentId, _courseId);\n        logs.push(newLog);\n        emit LogAdded(logCount + 1, timestamp, _content, _studentId,_courseId);\n        logCount++;\n    }\n\n    function getLogsCount() public view returns (uint) {\n        return logCount;\n    }\n\n    function getLog(uint _index) public view returns (uint id, uint timestamp, string memory content, uint studentId, uint courseId) {\n        require(_index < logs.length, \"Invalid log index\");\n        Log memory log = logs[_index];\n        return (log.id, log.timestamp, log.content, log.studentId, log.courseId);\n    }\n\n function updateStudent(uint _id, string memory _name, string memory _dateOfBirth, string memory _gender, string memory _residence, string memory _phoneNumber) public {\n    students[_id] = Student(_id, _name, _dateOfBirth, _gender, _residence, _phoneNumber);\n    for (uint i = 0; i < allStudents.length; i++) {\n        if (allStudents[i].id == _id) {\n            allStudents[i] = students[_id];\n            break;\n        }\n    }\n}\n\nfunction updateCourse(uint _id, string memory _courseName, uint _credits, uint _instructor, uint _option) public {\n    courses[_id] = Course(_id, _courseName, _credits, _instructor, _option);\n    for (uint i = 0; i < allCourses.length; i++) {\n        if (allCourses[i].id == _id) {\n            allCourses[i] = courses[_id];\n            break;\n        }\n    }\n}\n\nfunction updateInstructor(uint _id, string memory _name, uint _degree, string memory _email, string memory _phone) public {\n    \n    instructors[_id] = Instructor(_id, _name, _degree, _email, _phone);\n    \n    for (uint i = 0; i < allInstructors.length; i++) {\n        if (allInstructors[i].id == _id) {\n            allInstructors[i] = instructors[_id];\n            break;\n        }\n    }\n}\n\n}",
  "sourcePath": "D:/BIN/blockchain_phuc/marketplace-part-2/src/contracts/Marketplace.sol",
  "compiler": {
    "name": "solc",
    "version": "0.5.0+commit.1d4f565a.Emscripten.clang"
  },
  "schemaVersion": "3.0.2",
  "updatedAt": "2024-06-01T16:02:41.731Z",
  "devdoc": {
    "methods": {}
  },
  "userdoc": {
    "methods": {}
  }
}