{
  "contractName": "User",
  "abi": [
    {
      "constant": false,
      "inputs": [
        {
          "name": "_username",
          "type": "string"
        },
        {
          "name": "_password",
          "type": "string"
        },
        {
          "name": "_role",
          "type": "uint256"
        }
      ],
      "name": "registerUser",
      "outputs": [],
      "payable": false,
      "stateMutability": "nonpayable",
      "type": "function",
      "signature": "0xf209e74f"
    },
    {
      "constant": true,
      "inputs": [
        {
          "name": "_username",
          "type": "string"
        },
        {
          "name": "_password",
          "type": "string"
        }
      ],
      "name": "login",
      "outputs": [
        {
          "name": "",
          "type": "bool"
        }
      ],
      "payable": false,
      "stateMutability": "view",
      "type": "function",
      "signature": "0x58467dbc"
    },
    {
      "constant": true,
      "inputs": [
        {
          "name": "_password",
          "type": "string"
        }
      ],
      "name": "hashPassword",
      "outputs": [
        {
          "name": "",
          "type": "bytes32"
        }
      ],
      "payable": false,
      "stateMutability": "pure",
      "type": "function",
      "signature": "0x3f75a07d"
    },
    {
      "constant": true,
      "inputs": [
        {
          "name": "_username",
          "type": "string"
        }
      ],
      "name": "getUserByUsername",
      "outputs": [
        {
          "name": "",
          "type": "string"
        },
        {
          "name": "",
          "type": "string"
        },
        {
          "name": "",
          "type": "uint256"
        }
      ],
      "payable": false,
      "stateMutability": "view",
      "type": "function",
      "signature": "0x9f42af63"
    }
  ],
  "bytecode": "0x6080604052600160025534801561001557600080fd5b50610dbe806100256000396000f3fe608060405260043610610062576000357c0100000000000000000000000000000000000000000000000000000000900463ffffffff1680633f75a07d1461006757806358467dbc146101435780639f42af63146102ba578063f209e74f1461046e575b600080fd5b34801561007357600080fd5b5061012d6004803603602081101561008a57600080fd5b81019080803590602001906401000000008111156100a757600080fd5b8201836020820111156100b957600080fd5b803590602001918460018302840111640100000000831117156100db57600080fd5b91908080601f016020809104026020016040519081016040528093929190818152602001838380828437600081840152601f19601f8201169050808301925050505050505091929192905050506105d7565b6040518082815260200191505060405180910390f35b34801561014f57600080fd5b506102a06004803603604081101561016657600080fd5b810190808035906020019064010000000081111561018357600080fd5b82018360208201111561019557600080fd5b803590602001918460018302840111640100000000831117156101b757600080fd5b91908080601f016020809104026020016040519081016040528093929190818152602001838380828437600081840152601f19601f8201169050808301925050505050505091929192908035906020019064010000000081111561021a57600080fd5b82018360208201111561022c57600080fd5b8035906020019184600183028401116401000000008311171561024e57600080fd5b91908080601f016020809104026020016040519081016040528093929190818152602001838380828437600081840152601f19601f820116905080830192505050505050509192919290505050610654565b604051808215151515815260200191505060405180910390f35b3480156102c657600080fd5b50610380600480360360208110156102dd57600080fd5b81019080803590602001906401000000008111156102fa57600080fd5b82018360208201111561030c57600080fd5b8035906020019184600183028401116401000000008311171561032e57600080fd5b91908080601f016020809104026020016040519081016040528093929190818152602001838380828437600081840152601f19601f82011690508083019250505050505050919291929050505061085e565b604051808060200180602001848152602001838103835286818151815260200191508051906020019080838360005b838110156103ca5780820151818401526020810190506103af565b50505050905090810190601f1680156103f75780820380516001836020036101000a031916815260200191505b50838103825285818151815260200191508051906020019080838360005b83811015610430578082015181840152602081019050610415565b50505050905090810190601f16801561045d5780820380516001836020036101000a031916815260200191505b509550505050505060405180910390f35b34801561047a57600080fd5b506105d56004803603606081101561049157600080fd5b81019080803590602001906401000000008111156104ae57600080fd5b8201836020820111156104c057600080fd5b803590602001918460018302840111640100000000831117156104e257600080fd5b91908080601f016020809104026020016040519081016040528093929190818152602001838380828437600081840152601f19601f8201169050808301925050505050505091929192908035906020019064010000000081111561054557600080fd5b82018360208201111561055757600080fd5b8035906020019184600183028401116401000000008311171561057957600080fd5b91908080601f016020809104026020016040519081016040528093929190818152602001838380828437600081840152601f19601f82011690508083019250505050505050919291929080359060200190929190505050610a84565b005b6000816040516020018082805190602001908083835b60208310151561061257805182526020820191506020810190506020830392506105ed565b6001836020036101000a038019825116818451168082178552505050505050905001915050604051602081830303815290604052805190602001209050919050565b600061065e610ccb565b6001846040518082805190602001908083835b6020831015156106965780518252602082019150602081019050602083039250610671565b6001836020036101000a038019825116818451168082178552505050505050905001915050908152602001604051809103902060606040519081016040529081600082018054600181600116156101000203166002900480601f01602080910402602001604051908101604052809291908181526020018280546001816001161561010002031660029004801561076e5780601f106107435761010080835404028352916020019161076e565b820191906000526020600020905b81548152906001019060200180831161075157829003601f168201915b50505050508152602001600182018054600181600116156101000203166002900480601f0160208091040260200160405190810160405280929190818152602001828054600181600116156101000203166002900480156108105780601f106107e557610100808354040283529160200191610810565b820191906000526020600020905b8154815290600101906020018083116107f357829003601f168201915b5050505050815260200160028201548152505090506000816000015151141561083d576000915050610858565b61084a81602001516105d7565b610853846105d7565b149150505b92915050565b606080600061086b610ccb565b6001856040518082805190602001908083835b6020831015156108a3578051825260208201915060208101905060208303925061087e565b6001836020036101000a038019825116818451168082178552505050505050905001915050908152602001604051809103902060606040519081016040529081600082018054600181600116156101000203166002900480601f01602080910402602001604051908101604052809291908181526020018280546001816001161561010002031660029004801561097b5780601f106109505761010080835404028352916020019161097b565b820191906000526020600020905b81548152906001019060200180831161095e57829003601f168201915b50505050508152602001600182018054600181600116156101000203166002900480601f016020809104026020016040519081016040528092919081815260200182805460018160011615610100020316600290048015610a1d5780601f106109f257610100808354040283529160200191610a1d565b820191906000526020600020905b815481529060010190602001808311610a0057829003601f168201915b505050505081526020016002820154815250509050806000015181604001518191506040805190810160405280600881526020017f2a2a2a2a2a2a2a2a00000000000000000000000000000000000000000000000081525090935093509350509193909250565b60006001846040518082805190602001908083835b602083101515610abe5780518252602082019150602081019050602083039250610a99565b6001836020036101000a0380198251168184511680821785525050505050509050019150509081526020016040518091039020600001805460018160011615610100020316600290049050141515610b7e576040517f08c379a00000000000000000000000000000000000000000000000000000000081526004018080602001828103825260178152602001807f557365726e616d6520616c72656164792065786973747300000000000000000081525060200191505060405180910390fd5b610b86610ccb565b6060604051908101604052808581526020018481526020018381525090508060008060025481526020019081526020016000206000820151816000019080519060200190610bd5929190610ced565b506020820151816001019080519060200190610bf2929190610ced565b5060408201518160020155905050806001856040518082805190602001908083835b602083101515610c395780518252602082019150602081019050602083039250610c14565b6001836020036101000a03801982511681845116808217855250505050505090500191505090815260200160405180910390206000820151816000019080519060200190610c88929190610ced565b506020820151816001019080519060200190610ca5929190610ced565b506040820151816002015590505060026000815480929190600101919050555050505050565b6060604051908101604052806060815260200160608152602001600081525090565b828054600181600116156101000203166002900490600052602060002090601f016020900481019282601f10610d2e57805160ff1916838001178555610d5c565b82800160010185558215610d5c579182015b82811115610d5b578251825591602001919060010190610d40565b5b509050610d699190610d6d565b5090565b610d8f91905b80821115610d8b576000816000905550600101610d73565b5090565b9056fea165627a7a723058200e3acf2b7e00365d61baaf0bdda8f818d5694f87b8cdc89c13efef3cd4c232d80029",
  "source": "// SPDX-License-Identifier: MIT\r\npragma solidity ^0.5.0;\r\n\r\n\r\ncontract User {\r\n    struct UserData {\r\n        string username;\r\n        string password;\r\n        uint role;\r\n    }\r\n\r\n    mapping(uint => UserData) private usersByUserId;\r\n    mapping(string => UserData) private usersByUsername;\r\n    uint private nextUserId = 1;\r\n\r\n     function registerUser(string memory _username, string memory _password, uint _role) public {\r\n        require(bytes(usersByUsername[_username].username).length == 0, \"Username already exists\");\r\n\r\n       \r\n        UserData memory newUser = UserData(_username, _password, _role);\r\n        usersByUserId[nextUserId] = newUser;\r\n        usersByUsername[_username] = newUser;\r\n        nextUserId++;\r\n    }\r\n\r\n    function login(string memory _username, string memory _password) public view returns (bool) {\r\n        UserData memory user = usersByUsername[_username];\r\n        if (bytes(user.username).length == 0) {\r\n            return false; // User not found\r\n        }\r\n        \r\n        return hashPassword(_password) == hashPassword(user.password);\r\n    }\r\n\r\n    \r\n      // Mã hóa mật khẩu\r\n    function hashPassword(string memory _password) public pure returns (bytes32) {\r\n        return keccak256(abi.encodePacked(_password));\r\n    }\r\n\r\n      function getUserByUsername(string memory _username) public view returns (string memory, string memory,uint) {\r\n        UserData memory user = usersByUsername[_username];\r\n        return (user.username, \"********\", user.role); // Trả về mật khẩu dưới dạng dấu sao\r\n    }\r\n\r\n}\r\n",
  "sourcePath": "D:/BIN/blockchain_phuc/marketplace-part-2/src/contracts/User.sol",
  "compiler": {
    "name": "solc",
    "version": "0.5.0+commit.1d4f565a.Emscripten.clang"
  },
  "schemaVersion": "3.0.2",
  "updatedAt": "2024-06-01T16:04:04.864Z",
  "devdoc": {
    "methods": {}
  },
  "userdoc": {
    "methods": {}
  }
}